:020000040000FA
:060000002CEF0BF01200D2
:020006001200E6
:0600080022EF00F01200DF
:02000E000100EF
:060018007BEF00F0120076
:02001E000200DE
:10002000721600003E000000190000000E000000E3
:080030000A0F000002000000AD
:08003800F29CF29E1200F28E10
:10004000F28C1200DACFE4FFE2CFDAFFE9CFE4FF6F
:10005000EACFE4FFD9CFE4FFDACFE4FF57C0E4FFF3
:1000600058C0E4FF59C0E4FF5AC0E4FFF6CFE4FFF4
:10007000F7CFE4FFF5CFE4FFF3CFE4FFF4CFE4FFE5
:10008000FACFE4FF00EE5BF0040EE80403E3EECFEA
:10009000E4FFFBD7E652B7B69FDBB7B443DBA6B4A9
:1000A00013DAF2B2A4DBE55200EE5EF0040EE804CF
:1000B00003E3E5CFEDFFFBD7E5CFFAFFE5CFF4FF94
:1000C000E5CFF3FFE5CFF5FFE5CFF7FFE5CFF6FF8F
:1000D000E5CF5AF0E5CF59F0E5CF58F0E5CF57F02E
:1000E000E5CFDAFFE5CFD9FFE5CFEAFFE5CFE9FFBE
:1000F000E5CFDAFF1100D8CFE4FFE0CFE4FFE46EF4
:10010000DACFE4FFE2CFDAFFE9CFE4FFEACFE4FFA2
:10011000D9CFE4FFDACFE4FF57C0E4FF58C0E4FFD3
:1001200059C0E4FF5AC0E4FFF6CFE4FFF7CFE4FF85
:10013000F5CFE4FFF3CFE4FFF4CFE4FFFACFE4FF21
:1001400000EE5BF0040EE80403E3EECFE4FFFBD720
:10015000E652B7B213DAF0B062DBF0B274DBF0B49F
:100160008ADBE55200EE5EF0040EE80403E3E5CF1F
:10017000EDFFFBD7E5CFFAFFE5CFF4FFE5CFF3FFC7
:10018000E5CFF5FFE5CFF7FFE5CFF6FFE5CF5AF076
:10019000E5CF59F0E5CF58F0E5CF57F0E5CFDAFFDE
:1001A000E5CFD9FFE5CFEAFFE5CFE9FFE5CFDAFFFD
:1001B000E550E5CFE0FFE5CFD8FF100002D8FFD72C
:1001C0001200D9CFE6FFE1CFD9FF81E941E8720EF5
:1001D000D36E646AD08E88D866EC08F00F01150ED5
:1001E0002C6F12D84CD828D86FEC08F095D80001A5
:1001F0002F6B2D6B136B010E1F6F216F60D81FDFEC
:1002000042E9E7CFD9FF1200810ED56E1200D9CF97
:10021000E6FFE1CFD9FF81E942E8D650016ED75021
:10022000026E01EBE6FF02EBE6FFFCEC0AF042E9AE
:1002300043E9E7CFD9FF12000001006B016B026BAD
:10024000046B036B056B066B076B0A0E366F050EAE
:10025000096F306B316B326B336B346B356B0B0E5C
:10026000776EE80E786E030E796EB892B792B6820A
:10027000010EB36EF40EB26E210EB16E12000001CB
:100280000A6B0B6B010E116F126B0C6B7D0E086FFE
:100290000B0E746ED00E756E070E766EB884B79422
:1002A000B6840A0E716E2C0E726E010E736EB886D5
:1002B000B796B6867D6A7C6A210E7B6E120081A09D
:1002C00004D0F19C0001516B04D0F18C0001010EAF
:1002D000516FF288380EF112F192F06E00011D6B31
:1002E0001E6B0001526B1200896A0F0E926E8A6AB1
:1002F000CF0E936E8B6A946A8C6895688D6A966A45
:100300000F01256B246B8E6A600E976E8F6A0F0E3D
:10031000986E020E236F1200D9CFE6FFE1CFD9FF0E
:1003200081E943E8000EE66EE66ACCEC09F042E9AA
:10033000F350016EF450026E5A0E011802E1A50E40
:1003400002184AE05A0EE66EA50EE66E000EE66E44
:10035000E66A20EC0AF044E9036A080E035C14E242
:10036000010EE66E020E0324E66EE66AFAEC09F070
:1003700043E9010EE66E0A0E0324E66EE66AFAEC25
:1003800009F043E9032AE9D7080EE66E120EE66E7D
:10039000E66AFAEC09F043E9010EE66E130EE66E2A
:1003A000E66AFAEC09F043E9010EE66E140EE66E19
:1003B000E66AFAEC09F043E9010EE66E150EE66E08
:1003C000E66AFAEC09F043E9010EE66E160EE66EF7
:1003D000E66AFAEC09F043E9036A080E035C24E2DA
:1003E000020E0324E66EE66AAFEC09F042E9E66E1F
:1003F0000328EA6A140FE96E000EEA22E552E7507C
:10040000EF6E0A0E0324E66EE66AAFEC09F042E9ED
:10041000E66E0328EA6A230FE96E000EEA22E5522F
:10042000E750EF6E032AD9D7120EE66EE66AAFECFC
:1004300009F042E90001206F130EE66EE66AAFECA8
:1004400009F042E90001226F140EE66EE66AAFEC95
:1004500009F042E90001396F150EE66EE66AAFEC6D
:1004600009F042E900013A6F160EE66EE66AAFEC5B
:1004700009F042E900013B6F376B386BDDEC08F0A7
:100480005CEC09F033EC09F00BEC09F0E66AE66A83
:10049000E66AFED943E9E66A39C0E6FF010EE66E78
:1004A000F7D943E9E66A3AC0E6FF020EE66EF0D9F4
:1004B00043E9E66A3BC0E6FF030EE66EE9D943E98D
:1004C00044E9E7CFD9FF1200D9CFE6FFE1CFD9FF4A
:1004D00081E941E88D6A016A080E015C20E2012889
:1004E000EA6A140FE96E000EEA22EFCFE6FF020E71
:1004F0000124E66EE66AFAEC09F043E90128EA6AAB
:10050000230FE96E000EEA22EFCFE6FF0A0E012468
:10051000E66EE66AFAEC09F043E9012ADDD720C06D
:10052000E6FF120EE66EE66AFAEC09F043E922C035
:10053000E6FF130EE66EE66AFAEC09F043E939C00D
:10054000E6FF140EE66EE66AFAEC09F043E93AC0FB
:10055000E6FF150EE66EE66AFAEC09F043E93BC0E9
:10056000E6FF160EE66EE66AFAEC09F043E9B4BE61
:10057000FED7A69442E9E7CFD9FF1200B792000157
:10058000025139E00207025136E13B511BE1205193
:10059000D880135510E3010EE66E1351EA6A140F6A
:1005A000E96E000EEA22EFCFE6FF13C0E6FFE66A2F
:1005B000A4D944E907D0E66AE66A13C0E6FFE66A12
:1005C0009CD944E900011351EA6A230FE96E000E39
:1005D000EA22EF5010E1010EE66E1351EA6A230F92
:1005E000E96E000EEA22EFCFE6FF13C0E6FF030E2E
:1005F000E66E83D944E90001035118E00307035173
:1006000015E13B5104E1E66A1BEC08F041E9000109
:100610001351EA6A230FE96E000EEA22EF5006E159
:10062000E66A13C0E6FF29EC08F042E90001075131
:1006300007E00707075104E1E66A1BEC08F041E90F
:100640000001055104E00507055101E18E940651B2
:1006500004E00607065101E18E96045116E00407F6
:10066000045113E10001530508E1536B525104E0BA
:100670004CEC08F00001526B08D08F0E8E16978C50
:10068000010E536F0001080E046F000100510111AB
:1006900003E00007000E015B3607365104E1D5D9AF
:1006A00000010A0E366F345135110DE03407000E8B
:1006B000355B3451351107E100014E81030EE66EC2
:1006C00083EC08F041E90001325133110DE03207AB
:1006D000000E335B3251331107E100014E83020EED
:1006E000E66E83EC08F041E90001305131110DE074
:1006F0003007000E315B3051311107E100014E85AA
:10070000010EE66E83EC08F041E900013D5108E07E
:100710000907095105E17EEC09F00001050E096F9A
:10072000F2881200D9CFE6FFE1CFD9FF81E941E895
:10073000B7940001122B040E125D25E1126B010E1D
:10074000116F00015051EA6A3E0FE96E000EEA2275
:10075000EFCF0DF05051EA6A420FE96E000EEA2227
:10076000EFCF0EF05051EA6A460FE96E000EEA2212
:10077000EFCF0FF05051EA6A4A0FE96E000EEA22FD
:10078000EFCF10F003D01151E824116F0001115187
:10079000016E11510B1506E00A510C15111501E0FF
:1007A000018C04D00A51111501E0018C0D51111575
:1007B00001E0018A0E51111501E0018801EB8DFF66
:1007C00008510807000904E17D0E086F0C1D0C6F2D
:1007D00042E9E7CFD9FF1200B79600010F5111157A
:1007E00001E08D9A1051111501E08D981200000161
:1007F000525113E151510AE1F19C0001375101E0DE
:100800009BDA0001010E516FF29807D0F18C0001C4
:10081000385101E01EDB0001516BF2921200F090A2
:1008200000013A0502E13A6B02D0010E3A6F020E66
:100830000001505D07E0E66A3AC0E6FF020EE66E90
:1008400027D843E91200F0920001375101E112D09C
:1008500081B00ED0010E1F6F216F1D6B395106E064
:100860003D5103E04CEC08F084DB01D082DB02D088
:10087000010E1D6F1200F0940001375102E079DB88
:1008800006D06DDB00013C5102E0010E1E6F12002C
:10089000D9CFE6FFE1CFD9FF84E942E8010E046E2B
:1008A00082EB05F0045005EBF3FF055204E0D8900D
:1008B000E836F306FCE1046E015016E000500EE04D
:1008C000045000010B1304500A1504E00C6B7D0E5C
:1008D000086F03D00C697D0E086F03D0041C000163
:1008E0000B1704500A1305D0041C00010A17041C3E
:1008F0000B1743E9E7CFD9FF1200D9CFE6FFE1CFCD
:10090000D9FF85E942E883EB06F00250040845E28E
:10091000040E025E010E056E0204F36E0550F352E2
:1009200004E0D890E836F306FCE1056E01501FE0C4
:100930000650EA6A420FE96E000EEA220550EF12F5
:10094000005009E00650EA6A4A0FE96E000EEA22FA
:100950000550EF120BD0051C00015B6F0650EA6AD0
:100960004A0FE96E000EEA225B51EF1615D0051C06
:1009700000015B6F0650EA6A420FE96E000EEA2240
:100980005B51EF16051C5B6F0650EA6A4A0FE96E71
:10099000000EEA225B51EF1642D0010E056E0204F2
:1009A000F36E0550F35204E0D890E836F306FCE10C
:1009B000056E01501FE00650EA6A3E0FE96E000E18
:1009C000EA220550EF12005009E00650EA6A460F8D
:1009D000E96E000EEA220550EF120BD0051C000153
:1009E0005B6F0650EA6A460FE96E000EEA225B5121
:1009F000EF1615D0051C00015B6F0650EA6A3E0F2A
:100A0000E96E000EEA225B51EF16051C5B6F065083
:100A1000EA6A460FE96E000EEA225B51EF1643E9DF
:100A2000E7CFD9FF1200D9CFE6FFE1CFD9FF83E9A5
:100A300000EB00F001EB01F000010151001101E0B9
:100A4000FBD741E9E7CFD9FF1200D9CFE6FFE1CFCD
:100A5000D9FF81E943E883CF2CF000012D5100013B
:100A60002C5D01E19DD000012C5100012D19026E79
:100A70002CC02DF0010E016E010E036E090E035CF9
:100A800001E38ED00250011404E10150E824016E0C
:100A900085D0015000012C1501E07DD0000150519E
:100AA000030A4EE0010A45E0030A3FE0010A01E0C3
:100AB00072D000010350205D37E30350EA6A140F3F
:100AC000E96E000EEA22EF5012E1010EE66E010E11
:100AD000E66E03EBE6FFE66A10DF44E90350EA6ADC
:100AE000140FE96E000EEA22010EEF6E1DD0E66AC9
:100AF000E66A03EBE6FFE66A00DF44E90350EA6AD0
:100B0000140FE96E000EEA22EF6A03500001135D34
:100B10000BE10001385108E0E66A8DDA41E9E66A46
:100B200013C0E6FF96DA42E936D003EB22F073DB1E
:100B300032D003EB20F0F29E96DB3FDBF28E2BD01F
:100B40000350EA6A230FE96E000EEA22EF5013E128
:100B5000010EE66E010EE66E03EBE6FF030EE66E97
:100B6000CCDE44E90350EA6A230FE96E000EEA2264
:100B7000010EEF6E0FD0E66AE66A03EBE6FF030EA6
:100B8000E66EBBDE44E90350EA6A230FE96E000E0D
:100B9000EA22EF6A00D00150E824016E032A6ED7E2
:100BA0000F0E801400012E6F00012F5100012E5DE9
:100BB00001E1BED000012E5100012F19026E2EC09E
:100BC0002FF0010E016E036A040E035C01E3B0D046
:100BD0000250011404E10150E824016EA7D0015035
:100BE00000012E151BE00350020A11E0030A09E080
:100BF000010A01E012D00001EE0E346F020E356FD3
:100C00000CD00001EE0E326F020E336F06D00001E1
:100C1000EE0E306F020E316F00D085D00150000112
:100C20004E1501E07DD00350030A6CE0010A49E053
:100C3000030A25E0010A01E072D00001346B356B34
:100C4000030E0001505D04E1E66A5DDA41E916D069
:100C500000013B0509E100013B6BE66AE66A030E11
:100C6000E66E16DE43E90AD00001010E3B6FE66A2C
:100C7000010EE66E030EE66E0BDE43E950D0000176
:100C8000326B336B020E0001505D04E1E66A3BDA21
:100C900041E916D000013A0509E100013A6BE66A24
:100CA000E66A020EE66EF4DD43E90AD00001010EA9
:100CB0003A6FE66A010EE66E020EE66EE9DD43E982
:100CC0002ED00001306B316B0001500504E1E66A63
:100CD0001ADA41E916D00001390509E10001396B42
:100CE000E66AE66A010EE66ED3DD43E90AD000014A
:100CF000010E396FE66A010EE66E010EE66EC8DD82
:100D000043E90DD00001375102E033D907D027D98C
:100D100000013C5103E00001010E1E6F00D003D022
:100D2000011C00014E170150E824016E032A4CD724
:100D300044E9E7CFD9FF1200D9CFE6FFE1CFD9FFD1
:100D400081E943E80001385109E1010E386FB4D957
:100D500000011E5103E09AD900011E6B3A5103E0D5
:100D60001FC013F022D003EC0BF0F350016EF450CF
:100D7000026E81EB01F082EB02F0030ED89002329A
:100D80000132E804FBE181EB03F0D650031A070EB1
:100D9000031620C0E6FF03EBE6FF5AEC0AF041E938
:100DA000E750036E03280001136F1351EA6A140F12
:100DB000E96E000EEA22EF5018E0010EE66E3BD914
:100DC00041E900013B5102E10A0E076FE66A010E9C
:100DD000E66E13C0E6FFE66A90DD44E9010EE66EBA
:100DE00013C0E6FF36D942E911D0010EE66EE66E79
:100DF00013C0E6FFE66A81DD44E900013A0506E139
:100E0000010EE66E13C0E6FF24D942E9E66A010E40
:100E1000E66E13C0E6FF020EE66E6FDD44E9E66A99
:100E2000010EE66E13C0E6FF030EE66E66DD44E9D2
:100E3000E66A010EE66E21C0E6FFE66E5EDD44E97D
:100E40000001190E026F0A0E036F44E9E7CFD9FFC4
:100E50001200E66AF0D841E9E66A13C0E6FFF9D865
:100E600042E9010EE66E00011351EA6A230FE96EB2
:100E7000000EEA22EFCFE6FF13C0E6FF030EE66E98
:100E80003CDD44E900012051D880135520E3010ED8
:100E9000E66EE66E13C0E6FF020EE66E2EDD44E956
:100EA00000011351EA6A140FE96E000EEA22EFCF37
:100EB000E6FF1351EA6A140FE96E000EEA22EFCF43
:100EC000E6FF13C0E6FFE66A18DD44E90FD0E66AE4
:100ED000E66A13C0E6FF020EE66E0FDD44E9E66A3D
:100EE000E66A13C0E6FFE66A08DD44E90001225124
:100EF000D880215509E3010EE66EE66E21C0E6FFBB
:100F0000E66EFBDC44E908D0E66AE66A21C0E6FF4B
:100F1000010EE66EF2DC44E900011F2B2051D8805F
:100F20001F5502E31D5114E0010E1F6F212B2251AA
:100F3000D880215502E31D510BE01D6B010E216F7E
:100F4000395105E03D5102E0A7D813D801D011D89E
:100F500000011E5103E09AD800011E6B120000012F
:100F6000010E376FE66AE66EE66A92DC43E907EF48
:100F700001F00001376B386BE66AE66AE66A88DCE6
:100F800043E900012051D880135520E3010EE66E9D
:100F9000E66E13C0E6FF020EE66EAFDC44E9000128
:100FA0001351EA6A140FE96E000EEA22EFCFE6FF52
:100FB0001351EA6A140FE96E000EEA22EFCFE6FF42
:100FC00013C0E6FFE66A99DC44E90FD0E66AE66AF8
:100FD00013C0E6FF020EE66E90DC44E9E66AE66ABC
:100FE00013C0E6FFE66A89DC44E900012251D8809B
:100FF000215509E3010EE66EE66E21C0E6FFE66EBE
:101000007CDC44E908D0E66AE66A21C0E6FF010E0E
:10101000E66E73DC44E9E66A0ED841E9E66A13C07D
:10102000E6FF17D842E90001136B010E1F6F216F15
:101030001D6B61EF08F0D9CFE6FFE1CFD9FF82E960
:10104000005002E08E8201D08E9241E9E7CFD9FFB5
:101050001200D9CFE6FFE1CFD9FF83E942E8010EC4
:10106000036E0104F36E0350F35204E0D890E836A7
:10107000F306FCE1036E005003E003508B1202D034
:10108000031C8B1643E9E7CFD9FF1200979C8E8C87
:101090000001080E046F12000001530503E1010E68
:1010A000526F09D0030E00013D5D02E18E8A01D02E
:1010B0008E88080E046F12008E8400010A0E056FE0
:1010C00012008E8600010A0E066F12009A0EB56E8F
:1010D0000F018C0E2E6FA984A6946084120000016B
:1010E0003D6B86A007D086A202D03D6B02D0010ED8
:1010F0003D6F08D086A204D0030E3D6F979A02D0B0
:10110000020E3D6F1200D9CFE6FFE1CFD9FF82E991
:1011100000500001505D4DE05051030A1AE0010AF1
:101120000FE0030A04E0010A01E01CD01BD0E66ACC
:1011300039C0E6FF010EE66E48EC04F043E912D038
:10114000E66A3AC0E6FF020EE66E48EC04F043E9B8
:1011500009D0E66A3BC0E6FF030EE66E48EC04F0F9
:1011600043E900D00050030A19E0010A0EE0030A27
:1011700004E0010A01E01BD01AD0010EE66EE66E13
:10118000E66E48EC04F043E912D0010EE66EE66E1E
:10119000020EE66E48EC04F043E909D0010EE66E5B
:1011A000E66E030EE66E48EC04F043E900D000EB77
:1011B00050F041E9E7CFD9FF1200D9CFE6FFE1CFE8
:1011C000D9FF81E941E8010E016E090E015C1FE2C1
:1011D00000010150205D11E3010EE66E0150EA6A44
:1011E000140FE96E000EEA22EFCFE6FF01EBE6FFF7
:1011F000E66A7DEC04F044E908D0E66AE66A01EBB1
:10120000E6FFE66A7DEC04F044E9012ADED742E914
:10121000E7CFD9FF1200D9CFE6FFE1CFD9FF81E9AF
:1012200041E8010E016E090E015C19E20001015056
:10123000225D0AE3010EE66EE66E01EBE6FFE66E66
:101240007DEC04F044E909D0E66AE66A01EBE6FFCA
:10125000010EE66E7DEC04F044E9012AE4D742E990
:10126000E7CFD9FF1200D9CFE6FFE1CFD9FF81E95F
:1012700041E8010E016E090E015C1AE20001015005
:10128000205D0BE3010EE66EE66E01EBE6FF020E5B
:10129000E66E7DEC04F044E909D0E66AE66A01EB0B
:1012A000E6FF020EE66E7DEC04F044E9012AE3D786
:1012B00042E9E7CFD9FF1200D9CFE6FFE1CFD9FF4E
:1012C00081E941E8010E016E090E015C13E2010E95
:1012D000E66E0150EA6A230FE96E000EEA22EFCFB4
:1012E000E6FF01EBE6FF030EE66E7DEC04F044E959
:1012F000012AEAD742E9E7CFD9FF120000013D05F4
:1013000010E086A40BD00001545107E100013751D1
:1013100001E125DE0001010E546F02D00001546B83
:101320000FD085AA0BD00001545107E100013751BD
:1013300001E115DE0001010E546F02D00001546B73
:1013400097AC0CD085AC09D0555106E1010E556F14
:101350000001375101E00DDE01D0556B1200D9CFED
:10136000E6FFE1CFD9FF83E90001000E00145B6FB7
:10137000FF0E01145C6F5CC05BF05C6B5BC063FFD5
:10138000FF0E0014626E7F9E7F9C7F80615000D0B4
:1013900041E9E7CFD9FF1200D9CFE6FFE1CFD9FF6E
:1013A00083E943E8036A046A00EB5BF001EB5CF05D
:1013B000002A000E01225BC0E6FF5CC0E6FFCFDF23
:1013C00042E9056E0550036E046A00EBE6FF01EB8F
:1013D000E6FFC5DF42E9056E83EB04F0036A0550C2
:1013E000031203EBF3FF04EBF4FF00D044E9E7CF73
:1013F000D9FF1200D9CFE6FFE1CFD9FF84E9000180
:10140000000E01145B6FFF0E02145C6F5CC05BF09A
:101410005C6B5BC063FFFF0E0114626E00EB61FF4B
:101420007F9E7F9C7F84A698550E7E6EAA0E7E6E50
:101430007F82A6A8FED77F9441E9E7CFD9FF1200AB
:10144000D9CFE6FFE1CFD9FF85E90001000E0014F6
:101450005B6FFF0E01145C6F5CC05BF05C6B5BC08C
:10146000E6FF02EB5DF003EB5EF0022A000E0322C2
:101470005DC0E6FF5EC0E6FFBDDF43E9FF0E00147E
:10148000E66E02EBE6FF03EBE6FFB4DF43E941E97A
:06149000E7CFD9FF1200B6
:0A14960042E8D9CFE6FFDACFE6FF07
:1014A000E1CFD9FFE2CFDAFF86E9036A1200F3DF6A
:1014B000038003D0F0DF01D00382026A080EE76EDA
:1014C000D890013602360050025C02E3026E012A17
:1014D000E72EF7D703B2120003B081EB00F003A0B0
:1014E00082EB00F0E552E5CFDAFFE7CFD9FF43E921
:1014F000120044E8D9CFE6FFDACFE6FFE1CFD9FF0B
:10150000E2CFDAFF8AE980EB04F081EB05F082EBB1
:1015100006F002500402F450016EF350006E0350C6
:10152000076E0502F450036EF350026E075004027A
:10153000F3500126F4500222E86A03220650050205
:10154000F3500126F4500222E86A0322E552E5CF67
:0A155000DAFFE7CFD9FF46E9000CEF
:06155A001E0EF66E000EED
:10156000F76E000EF86E0F010900F550056F0900C7
:10157000F550066F03E1056701D03DD00900F55035
:10158000006F0900F550016F0900F550026F090066
:101590000900F550E96E0900F550EA6E09000900EE
:1015A0000900F550036F0900F550046F09000900A8
:1015B000F6CF07FFF7CF08FFF8CF09FF00CFF6FF00
:1015C00001CFF7FF02CFF8FF0F01035302E10453ED
:1015D00007E00900F550EE6E0307F8E20407F9D7BB
:1015E00007CFF6FF08CFF7FF09CFF8FF0F01050778
:0815F000000E065BBFD71200DC
:0815F800FE0EE3CF0AFFFF0E17
:10160000E3CF0BFF1200350EE66E450EE66E0ACFF5
:10161000E6FF0BCFE6FF79EC0AF0E552E5CF0BFFD2
:10162000E7CF0AFF0F010A2BE86A0B230B9F0ACFB3
:08163000F3FF0BCFF4FF1200E1
:08163800160EF36E00EE00F047
:101640000F0E01D81200EA6002D0EE6AFCD7F35008
:08165000E9601200EE6AFCD70C
:081658001EEE00F02EEE00F082
:10166000F86AADEC0AF003EC00F0DEEC00F0FBD71A
:02167000120066
:0E16720000000000000000000000000000006A
:0B16800000000000000000000000005F
:020000040030CA
:0100000054AB
:0100010008F6
:010002007687
:010003007C80
:010005008872
:010006009168
:00000001FF
