:020000040000FA
:0600000031EF1FF01200B9
:020006001200E6
:0600080022EF00F01200DF
:02000E000100EF
:060018007BEF00F0120076
:02001E000200DE
:100020007C3E0000000000001A0000000E000000EE
:08003000FD01000002000000C8
:08003800F29CF29E1200F28E10
:10004000F28C1200DACFE4FFE2CFDAFFE9CFE4FF6F
:10005000EACFE4FFD9CFE4FFDACFE4FFF9C1E4FF50
:10006000FAC1E4FFFBC1E4FFFCC1E4FFF6CFE4FF0B
:10007000F7CFE4FFF5CFE4FFF3CFE4FFF4CFE4FFE5
:10008000FACFE4FF0FEE00F0040EE80403E3EECF36
:10009000E4FFFBD7E652B7A602D09EEC08F0B7A467
:1000A00002D0A3EC07F0E5520FEE03F0040EE804D3
:1000B00003E3E5CFEDFFFBD7E5CFFAFFE5CFF4FF94
:1000C000E5CFF3FFE5CFF5FFE5CFF7FFE5CFF6FF8F
:1000D000E5CFFCF1E5CFFBF1E5CFFAF1E5CFF9F1A2
:1000E000E5CFDAFFE5CFD9FFE5CFEAFFE5CFE9FFBE
:1000F000E5CFDAFF1100D8CFE4FFE0CFE4FFE46EF4
:10010000DACFE4FFE2CFDAFFE9CFE4FFEACFE4FFA2
:10011000D9CFE4FFDACFE4FFF9C1E4FFFAC1E4FF8D
:10012000FBC1E4FFFCC1E4FFF6CFE4FFF7CFE4FF3F
:10013000F5CFE4FFF3CFE4FFF4CFE4FFFACFE4FF21
:100140000FEE00F0040EE80403E3EECFE4FFFBD76C
:10015000E652B7A202D02CEC05F0F0A002D0AEEC33
:1001600008F0F0A202D01DEC09F0F0A402D02EECB1
:1001700009F0E5520FEE03F0040EE80403E3E5CFC7
:10018000EDFFFBD7E5CFFAFFE5CFF4FFE5CFF3FFB7
:10019000E5CFF5FFE5CFF7FFE5CFF6FFE5CFFCF1C3
:1001A000E5CFFBF1E5CFFAF1E5CFF9F1E5CFDAFFE5
:1001B000E5CFD9FFE5CFEAFFE5CFE9FFE5CFDAFFED
:1001C000E550E5CFE0FFE5CFD8FF10002DD8010EB8
:1001D00081140AE000010A5107E1010E0A6F0101D2
:1001E000E65102E062EC11F0010E811409E1000118
:1001F0000A0506E10A6B0101E75102E0EEEC12F09C
:10020000E6D71200D9CFE6FFE1CFD9FF83E900EBB3
:10021000D0F101EBD1F10101D151D01101E0FBD7B7
:1002200041E9E7CFD9FF1200D9CFE6FFE1CFD9FFEF
:1002300081E941E8720ED36E646AD08E72D80F01E4
:10024000150E2C6F12D847D828D8F6EC1DF081D89F
:100250000101E36BE16B18EC16F05AD8F0DE4CECC0
:100260001CF042E9E7CFD9FF1200810ED56E1200D3
:10027000D9CFE6FFE1CFD9FF81E942E8D650016E40
:10028000D750026E01EBE6FF02EBE6FF01EC1FF038
:1002900042E943E9E7CFD9FF12000101D06BD16BEE
:1002A000D26BD36BD46BD56B0A0EE46F0001006B7D
:1002B000016B026B036B0B0E776EE80E786E030E0C
:1002C000796EB892B792B682010EB36EF40EB26E2A
:1002D000210EB16E12000101D66BD76B010EDE6FDD
:1002E000DF6B0B0E746ED00E756E070E766EB884D3
:1002F000B794B6840A0E716E2C0E726E010E736E78
:10030000B886B796B6867D6A7C6A210E7B6E12002F
:10031000ED0EF216380EF112F192F06E0101E86B5B
:100320001200896A0F0E926E8A6ACF0E936E8B6AE4
:10033000946A8C6895688D6A966A0F01256B246BA8
:100340008E6A600E976E8F6A0F0E986E020E236F84
:100350001200D9CFE6FFE1CFD9FF81E949E8000ECD
:10036000E66EE66A73EC1DF042E9F350016EF4505C
:10037000026EB70E011802E15B0E021801E11CD1FA
:10038000E66A81EC10F041E90101010EEC6F110EFB
:10039000ED6F550EEE6F056A080E055C01E30AD19C
:1003A00005501A0DF3CFE9FFF4CFEAFF000EE9265E
:1003B000010EEA22EE52EF6805501A0DF3CFE9FF65
:1003C000F4CFEAFF000EE926010EEA22020EE9262A
:1003D000000EEA22EF6805501A0DF3CFE9FFF4CFC3
:1003E000EAFF000EE926010EEA22030EE926000EBE
:1003F000EA22070EEF6E05501A0DF3CFE9FFF4CF96
:10040000EAFF000EE926010EEA22040EE926000E9C
:10041000EA22EF6A05501A0DF3CFE9FFF4CFEAFFA5
:10042000000EE926010EEA22EF8005501A0DF3CFE7
:10043000E9FFF4CFEAFF000EE926010EEA22EF926F
:1004400005501A0DF3CFE9FFF4CFEAFF000EE926BD
:10045000010EEA22EF8605501A0DF3CFE9FFF4CF23
:10046000EAFF000EE926010EEA22EF8805501A0D78
:10047000F3CFE9FFF4CFEAFF000EE926010EEA22EE
:10048000EF8A05500CE105501A0DF3CFE9FFF4CFC8
:10049000EAFF000EE926010EEA22EF840BD0055098
:1004A0001A0DF3CFE9FFF4CFEAFF000EE926010EA3
:1004B000EA22EF94066A040E065C6BE205501A0D00
:1004C000F3CFE9FFF4CFEAFF000EE926010EEA229E
:1004D0000A0EE926000EEA22E9CF00FFEACF01FF6B
:1004E00006500F01EA6A0025E96E0151EA220F0E5B
:1004F000EF6E05501A0DF3CFE9FFF4CFEAFF000EBF
:10050000E926010EEA220E0EE926000EEA22E9CFC4
:1005100000FFEACF01FF0650EA6A0025E96E0151AB
:10052000EA220F0EEF6E05501A0DF3CFE9FFF4CF5C
:10053000EAFF000EE926010EEA22120EE926000E5D
:10054000EA22E9CF00FFEACF01FF0650EA6A002560
:10055000E96E0151EA220F0EEF6E05501A0DF3CF2E
:10056000E9FFF4CFEAFF000EE926010EEA22160E9B
:10057000E926000EEA22E9CF00FFEACF01FF06508C
:10058000EA6A0025E96E0151EA220F0EEF6E062A93
:1005900092D705501A0DF3CFE9FFF4CFEAFF000E12
:1005A000E926010EEA22090EE926000EEA22EF6A88
:1005B000052AF2D6EED952D0020EE66EE66A56EC65
:1005C0001DF042E90001196F030EE66EE66A56EC73
:1005D0001DF042E90101EC6F040EE66EE66A56EC8E
:1005E0001DF042E90101ED6F050EE66EE66A56EC7C
:1005F0001DF042E90101EE6F060E036E046A050E5E
:10060000076E056A080E055C29E205501A0D000EFA
:10061000F324086E010EF420096E066A0750065C8A
:100620001BE203EB00FF04EB01FF032A000E042290
:1006300000CFE6FF01CFE6FF56EC1DF042E9E66E83
:1006400008EBE9FF09EBEAFF082A000E0922E55250
:10065000E750EF6E062AE2D7052AD4D700011951D8
:10066000030A52E0010A37E0030A1CE0010A01E034
:1006700064D00101010E056F020E1F6F030E396F6A
:10068000040E536F050E6D6F060E876F070EA16F78
:10069000BB6B00851A9534954E95689582959C950F
:1006A000B6954BD00101010E056F020E1F6F030EB0
:1006B000396F536B050E6D6F060E876F070EA16FB6
:1006C000040EBB6F00851A9534954E95688582950A
:1006D0009C95B69532D00101010E056F1F6B030E7C
:1006E000396F020E536F050E6D6F040E876F070E84
:1006F000A16F060EBB6F00851A9534854E956885EF
:1007000082959C85B69519D00101056B010E1F6F6E
:10071000020E396F030E536F040E6D6F050E876F57
:10072000060EA16F070EBB6F00851A8534854E85B6
:10073000688582859C85B68500D0056A080E055CB3
:1007400001E3D3D005501A0DF3CFE9FFF4CFEAFF50
:10075000000EE926010EEA22EF50020B09E0E66ADC
:10076000E66A05EBE6FFE66AADEC0AF044E909D07B
:10077000010EE66EE66E05EBE6FFE66AADEC0AF00A
:1007800044E9066A080E065C01E3ADD005501A0D77
:10079000F3CFE9FFF4CFEAFF000EE926010EEA22CB
:1007A000040EE926000EEA220650EF5C0CE3010E6F
:1007B000E66EE66E06EBE6FFE66E05EBE6FF62EC44
:1007C00009F045E90BD0E66AE66A06EBE6FF010EA2
:1007D000E66E05EBE6FF62EC09F045E905501A0DFF
:1007E000F3CFE9FFF4CFEAFF000EE926010EEA227B
:1007F000030EE926000EEA220650EF5C0DE3010E1F
:10080000E66EE66E06EBE6FF020EE66E05EBE6FF31
:1008100062EC09F045E90BD0E66AE66A06EBE6FF12
:10082000020EE66E05EBE6FF62EC09F045E90550C5
:100830001A0DF3CFE9FFF4CFEAFF000EE926010E0F
:10084000EA22030EE926000EEA220650EF5C1EE3C0
:10085000010EE66E06EBE6FF05501A0DF3CFE9FF39
:10086000F4CFEAFF000EE926010EEA22EE52EFCFA6
:10087000E6FF0AEC1EF042E9E66E06EBE6FFE66AEA
:1008800005EBE6FF62EC09F045E90AD0E66AE66AA4
:1008900006EBE6FFE66A05EBE6FF62EC09F045E9E8
:1008A000010EE66E06EBE6FF05501A0DF3CFE9FFE9
:1008B000F4CFEAFF000EE926010EEA22020EE92635
:1008C000000EEA22EFCFE6FF0AEC1EF042E9E66EE8
:1008D00006EBE6FF030EE66E05EBE6FF62EC09F0C1
:1008E00045E9062A4FD7052A29D70101E66BE76BB0
:1008F0004AE9E7CFD9FF1200D9CFE6FFE1CFD9FF10
:1009000084E942E8050E0202F3CF00FF060E01243F
:100910000F010025046E056A00EBE6FF04EBE6FF1D
:1009200005EBE6FFA1EC1DF043E943E9E7CFD9FF72
:100930001200D9CFE6FFE1CFD9FF82E944E80050A9
:100940001A0DF3CFE9FFF4CFEAFF000EE926010EFE
:10095000EA22E9CF00FFEACF01FF0F010051046E48
:100960000151056E050E0002F350060F026E036A78
:1009700004EBE9FF05EBEAFFEFCFE6FF02EBE6FF52
:1009800003EBE6FFA1EC1DF043E945E9E7CFD9FF12
:100990001200D9CFE6FFE1CFD9FF81E949E819C0BC
:1009A000E6FF020EE66EE66AA1EC1DF043E9ECC13B
:1009B000E6FF030EE66EE66AA1EC1DF043E9EDC129
:1009C000E6FF040EE66EE66AA1EC1DF043E9EEC117
:1009D000E6FF050EE66EE66AA1EC1DF043E9060EA1
:1009E000036E046A050E076E056A080E055C26E2B2
:1009F00005501A0D000EF324086E010EF420096E46
:100A0000066A0750065C18E208EBE9FF09EBEAFF0B
:100A1000082A000E0922EFCFE6FF03EB00FF04EBEC
:100A200001FF032A042200CFE6FF01CFE6FFA1EC7D
:100A30001DF043E9062AE5D7052AD7D7B70EE66E9B
:100A40005B0EE66E000EE66EE66ACBEC1DF044E946
:100A50004AE9E7CFD9FF1200D9CFE6FFE1CFD9FFAE
:100A600081E944E8B7920101D25101E1B2D1D20744
:100A7000D25101E0AED1010E026E036A080E035C92
:100A800001E3A7D103501A0DF3CFE9FFF4CFEAFF3A
:100A9000000EE926010EEA22EF50010B01E074D1AD
:100AA00003501A0DF3CFE9FFF4CFEAFF000EE92659
:100AB000010EEA22060EE926000EEA22EFCFE6FF3B
:100AC00003501A0DF3CFE9FFF4CFEAFF000EE92639
:100AD000010EEA22020EE926000EEA22EFCFE6FF1F
:100AE0000AEC1EF042E9000901E04ED103501A0D54
:100AF000F3CFE9FFF4CFEAFF000EE926010EEA2268
:100B0000060EE926000EEA22EFCF00FF03501A0D71
:100B1000F3CFE9FFF4CFEAFF000EE926010EEA2247
:100B2000030EE926000EEA22EF500F01D88000558F
:100B300001E28ED0010EE66E03501A0DF3CFE9FFED
:100B4000F4CFEAFF000EE926010EEA22060EE9269E
:100B5000000EEA22EFCFE6FF03501A0DF3CFE9FFB4
:100B6000F4CFEAFF000EE926010EEA22EE52EFCFA3
:100B7000E6FF0AEC1EF042E9E66E03501A0DF3CFD1
:100B8000E9FFF4CFEAFF000EE926010EEA22060E85
:100B9000E926000EEA22EFCFE6FFE66A03EBE6FF66
:100BA00091DB45E9010EE66E03501A0DF3CFE9FF24
:100BB000F4CFEAFF000EE926010EEA22060EE9262E
:100BC000000EEA22EFCFE6FF03501A0DF3CFE9FF44
:100BD000F4CFEAFF000EE926010EEA22020EE92612
:100BE000000EEA22EFCFE6FF0AEC1EF042E9E66EC5
:100BF00003501A0DF3CFE9FFF4CFEAFF000EE92608
:100C0000010EEA22060EE926000EEA22EFCFE6FFE9
:100C1000030EE66E03EBE6FF55DB45E9010EE66EDB
:100C2000E66E03501A0DF3CFE9FFF4CFEAFF000E92
:100C3000E926010EEA22060EE926000EEA22EFCF8F
:100C4000E6FF020EE66E03EBE6FF3CDB45E947D02C
:100C5000E66AE66A03501A0DF3CFE9FFF4CFEAFF24
:100C6000000EE926010EEA22060EE926000EEA220F
:100C7000EFCFE6FFE66A03EBE6FF24DB45E9E66A31
:100C8000E66A03501A0DF3CFE9FFF4CFEAFF000E36
:100C9000E926010EEA22060EE926000EEA22EFCF2F
:100CA000E6FF030EE66E03EBE6FF0CDB45E9E66AC2
:100CB000E66A03501A0DF3CFE9FFF4CFEAFF000E06
:100CC000E926010EEA22060EE926000EEA22EFCFFF
:100CD000E6FF020EE66E03EBE6FFF4DA45E90350A9
:100CE0001A0DF3CFE9FFF4CFEAFF000EE926010E5B
:100CF000EA22080EE926000EEA22EFCF00FF035099
:100D00001A0DF3CFE9FFF4CFEAFF000EE926010E3A
:100D1000EA22040EE926000EEA22EF500F01D880E5
:100D200000551AE3010EE66EE66E03501A0DF3CF7E
:100D3000E9FFF4CFEAFF000EE926010EEA22080ED1
:100D4000E926000EEA22EFCFE6FF010EE66E03EB86
:100D5000E6FFB8DA45E918D0E66AE66A03501A0DEC
:100D6000F3CFE9FFF4CFEAFF000EE926010EEA22F5
:100D7000080EE926000EEA22EFCFE6FF010EE66E2E
:100D800003EBE6FF9FDA45E902508B141DE10350A7
:100D90001A0DF3CFE9FFF4CFEAFF000EE926010EAA
:100DA000EA22EF50020B08E0E66AE66A03EBE6FF90
:100DB000E66AD3DB44E908D0010EE66EE66E03EB8B
:100DC000E6FFE66ACADB44E90250E824026E032A21
:100DD00055D60101D35143E0D307D35140E1036A13
:100DE000080E035C3AE203501A0DF3CFE9FFF4CF8B
:100DF000EAFF000EE926010EEA22EF50010B2BE17B
:100E000003501A0DF3CFE9FFF4CFEAFF000EE926F5
:100E1000010EEA22060EE926000EEA22EFCFE6FFD7
:100E200003501A0DF3CFE9FFF4CFEAFF000EE926D5
:100E3000010EEA22020EE926000EEA22EFCFE6FFBB
:100E40000AEC1EF042E9000906E1E66A03EBE6FF60
:100E500056EC18F042E9032AC3D703EC18F001015D
:100E6000D45104E0D407D45101E18E94D55104E06B
:100E7000D507D55101E18E96D051D11103E0D007AD
:100E8000000ED15BE407E45105E143EC0BF00101F6
:100E90000A0EE46F0001005101111EE00007000E70
:100EA000015B0051011118E1010E026E016A040E8E
:100EB000015C12E2025004150AE002500613046BB2
:100EC000140E0124E66EC3EC0BF041E905D002508C
:100ED000E824026E012AEBD70001025103111EE043
:100EE0000207000E035B0251031118E1010E026EAE
:100EF000016A080E015C12E2025005150AE0025078
:100F00000713056B080E0124E66EC3EC0BF041E9F4
:100F100005D00250E824026E012AEBD700010851E7
:100F200009110DE00807000E095B0851091107E1DE
:100F30000C0505E1E5C1E6FF81EC10F041E945E96A
:100F4000E7CFD9FF1200D9CFE6FFE1CFD9FF81E982
:100F500041E8B7940101DF2B040EDF5D01E0D6D03C
:100F6000DF6B010EDE6FD6C1DAF1D7C1DBF1030E04
:100F700000010C5D01E0A9D00101EB511A0DF3CF86
:100F8000E9FFF4CFEAFF000EE926010EEA220A0E7D
:100F9000E926000EEA22E9CF00FFEACF01FFEB517C
:100FA0001A0DF3CFE9FFF4CFEAFF000EE926010E98
:100FB000EA22090EE926000EEA22EF500F01EA6A42
:100FC0000025E96E0151EA22EFCFD8F10101EB5182
:100FD0001A0DF3CFE9FFF4CFEAFF000EE926010E68
:100FE000EA220E0EE926000EEA22E9CF00FFEACF40
:100FF00001FFEB511A0DF3CFE9FFF4CFEAFF000E2A
:10100000E926010EEA22090EE926000EEA22EF5037
:101010000F01EA6A0025E96E0151EA22EFCFD9F10A
:101020000101EB511A0DF3CFE9FFF4CFEAFF000EF7
:10103000E926010EEA22120EE926000EEA22E9CF85
:1010400000FFEACF01FFEB511A0DF3CFE9FFF4CF18
:10105000EAFF000EE926010EEA22090EE926000E3B
:10106000EA22EF500F01EA6A0025E96E0151EA22F7
:10107000EFCFDCF10101EB511A0DF3CFE9FFF4CF13
:10108000EAFF000EE926010EEA22160EE926000EFE
:10109000EA22E9CF00FFEACF01FFEB511A0DF3CFAF
:1010A000E9FFF4CFEAFF000EE926010EEA22090E5D
:1010B000E926000EEA22EF500F01EA6A0025E96EE8
:1010C0000151EA22EFCFDDF120D00C51EA6A0D0F79
:1010D000E96E000EEA22EFCFD8F10C51EA6A100F48
:1010E000E96E000EEA22EFCFD9F10C51EA6A130F34
:1010F000E96E000EEA22EFCFDCF10C51EA6A160F1E
:10110000E96E000EEA22EFCFDDF103D0DE51E824D4
:10111000DE6F0101DE51016EDA51DE1501E0018C56
:10112000D851DE1501E0018AD951DE1501E00188B0
:1011300001EB8DFF42E9E7CFD9FF1200B79601011D
:10114000DB51DE1501E08D9CDC51DE1501E08D9A4E
:10115000DD51DE1501E08D9812001200D9CFE6FFB7
:10116000E1CFD9FF81E941E8F090016A080E015C06
:1011700060E201501A0DF3CFE9FFF4CFEAFF000E51
:10118000E926010EEA22EF50200B51E001501A0D22
:10119000F3CFE9FFF4CFEAFF000EE926010EEA22C1
:1011A000EF50080B0CE001501A0DF3CFE9FFF4CF1C
:1011B000EAFF000EE926010EEA22EF960BD001505D
:1011C0001A0DF3CFE9FFF4CFEAFF000EE926010E76
:1011D000EA22EF86030E00010C5D29E101500101B6
:1011E000EB5D25E101501A0DF3CFE9FFF4CFEAFFE3
:1011F000000EE926010EEA22090EE926000EEA2277
:10120000EF50020814E0E66A01501A0DF3CFE9FF2F
:10121000F4CFEAFF000EE926010EEA22EF50080B98
:1012200001E0010EE66E020EE66E22D843E9012AC5
:101230009DD742E9E7CFD9FF1200D9CFE6FFE1CF32
:10124000D9FF81E941E8F0920101E65101E102D0C4
:10125000010EE86F42E9E7CFD9FF1200F0940101D7
:10126000E65103E018EC16F002D00DEC16F0120077
:10127000D9CFE6FFE1CFD9FF84E942E8010E046E41
:1012800082EB05F0045005EBF3FF055204E0D89023
:10129000E836F306FCE1046E01500BE00450010156
:1012A000D613005003E00450D71302D0041CD71704
:1012B00005D0041C0101D617041CD71743E9E7CF5A
:1012C000D9FF1200D9CFE6FFE1CFD9FF86E942E886
:1012D00083EB07F00250030801E39FD0040E025E87
:1012E000010E066E065002EBF3FF025204E0D890A6
:1012F000E836F306FCE1066E015055E004501A0D85
:10130000F3CFE9FFF4CFEAFF000EE926010EEA224F
:101310000E0EE926000EEA22E9CF00FFEACF01FF18
:1013200007500F01EA6A0025E96E0151EA220650D2
:10133000EF1200501BE004501A0DF3CFE9FFF4CF79
:10134000EAFF000EE926010EEA22160EE926000E3B
:10135000EA22E9CF00FFEACF01FF0750EA6A002541
:10136000E96E0151EA220650EF121CD0061C026FF2
:1013700004501A0DF3CFE9FFF4CFEAFF000EE9267F
:10138000010EEA22160EE926000EEA22E9CF00FF3E
:10139000EACF01FF0750EA6A0025E96E0151EA220F
:1013A0000251EF1639D0061C0F01026F04501A0DBE
:1013B000F3CFE9FFF4CFEAFF000EE926010EEA229F
:1013C0000E0EE926000EEA22E9CF00FFEACF01FF68
:1013D0000750EA6A0025E96E0151EA220251EF1630
:1013E000061C026F04501A0DF3CFE9FFF4CFEAFF99
:1013F000000EE926010EEA22160EE926000EEA2268
:10140000E9CF00FFEACF01FF0750EA6A0025E96E45
:101410000151EA220251EF169CD0010E066E0650D1
:1014200002EBF3FF025204E0D890E836F306FCE149
:10143000066E015055E004501A0DF3CFE9FFF4CFCA
:10144000EAFF000EE926010EEA220A0EE926000E46
:10145000EA22E9CF00FFEACF01FF07500F01EA6A55
:101460000025E96E0151EA220650EF1200501BE000
:1014700004501A0DF3CFE9FFF4CFEAFF000EE9267E
:10148000010EEA22120EE926000EEA22E9CF00FF41
:10149000EACF01FF0750EA6A0025E96E0151EA220E
:1014A0000650EF121CD0061C026F04501A0DF3CF29
:1014B000E9FFF4CFEAFF000EE926010EEA22120E40
:1014C000E926000EEA22E9CF00FFEACF01FF07502C
:1014D000EA6A0025E96E0151EA220251EF1639D07D
:1014E000061C0F01026F04501A0DF3CFE9FFF4CF71
:1014F000EAFF000EE926010EEA220A0EE926000E96
:10150000EA22E9CF00FFEACF01FF0750EA6A00258F
:10151000E96E0151EA220251EF16061C026F0450D7
:101520001A0DF3CFE9FFF4CFEAFF000EE926010E12
:10153000EA22120EE926000EEA22E9CF00FFEACFE6
:1015400001FF0750EA6A0025E96E0151EA220251C3
:10155000EF1643E9E7CFD9FF1200D9CFE6FFE1CF7D
:10156000D9FF85E942E883EB06F00250030845E223
:10157000040E025E010E056E055002EBF3FF0252EF
:1015800004E0D890E836F306FCE1056E01501FE058
:101590000650EA6A100FE96E000EEA220550EF12BB
:1015A000005009E00650EA6A160FE96E000EEA22C2
:1015B0000550EF120BD0051C0F01006F0650EA6AB0
:1015C000160FE96E000EEA220051EF1615D0051C29
:1015D0000F01006F0650EA6A100FE96E000EEA2252
:1015E0000051EF16051C006F0650EA6A160FE96EEF
:1015F000000EEA220051EF1642D0010E056E055092
:1016000002EBF3FF025204E0D890E836F306FCE167
:10161000056E01501FE00650EA6A0D0FE96E000EDC
:10162000EA220550EF12005009E00650EA6A130F53
:10163000E96E000EEA220550EF120BD0051C0F01D7
:10164000006F0650EA6A130FE96E000EEA2200519D
:10165000EF1615D0051C0F01006F0650EA6A0D0F3A
:10166000E96E000EEA220051EF16051C006F0650CD
:10167000EA6A130FE96E000EEA220051EF1643E901
:10168000E7CFD9FF1200D9CFE6FFE1CFD9FF81E93B
:1016900043E883CFE0F10101E151E05D34E0E05146
:1016A000E119026EE0C1E1F1010E016E036A080E5C
:1016B000035C29E20250011404E10150E824016EA8
:1016C00020D001500101E01508E00001EE0E026F8C
:1016D000020E036F0150051311D0011C0001051704
:1016E0000150071503E0011C071708D0055102E15E
:1016F000026B036B03EBE6FF46D841E90150E82497
:10170000016E032AD4D70F0E80140101E26FE3515A
:10171000E25D35E0E251E319026EE2C1E3F1010E50
:10172000016E036A040E035C2AE20250011404E114
:101730000150E824016E21D001500101E21508E0BA
:101740000001EE0E006F020E016F0150041312D063
:10175000011C000104170150061503E0011C0617C7
:1017600009D0045102E1006B016B100E0324E66EF8
:101770000AD841E90150E824016E032AD3D744E98D
:10178000E7CFD9FF1200D9CFE6FFE1CFD9FF82E939
:101790000050170A01E134D2010A01E11CD2030A08
:1017A00001E104D2010A01E1ECD1070A01E1E0D133
:1017B000010A01E166D1030A01E1FFD0010A01E15A
:1017C0009AD0180A01E17DD0010A01E17AD0030A1A
:1017D00001E177D0010A75E0070A73E0010A71E0C0
:1017E000030A6FE0010A6DE00F0A0FE0010A0DE045
:1017F000030A0BE0010A09E0070A07E0010A05E015
:10180000030A03E0010A01E015D200010C51030AAA
:1018100029E0010A21E0030A09E0010A01E050D0B1
:1018200000EBE6FF19EC10F041E94AD0085109112C
:101830000DE00101E551005C05E100EBE6FFF6EC8F
:1018400010F041E90001086B096B05D0C20E086F6A
:10185000096B00EBE5F134D000EBE6FF4DEC10F046
:1018600041E92ED00101EB511A0DF3CFE9FFF4CF7E
:10187000EAFF000EE926010EEA22090EE926000E13
:10188000EA22EF50030A16E0010A0FE0030A08E01B
:10189000010A01E014D000EBE6FFD0D941E90FD0F6
:1018A00000EBE6FF9ADA41E90AD000EBE6FFCCDA7A
:1018B00041E905D000EBE6FF05DB41E900D000D0AF
:1018C000B9D100010C51020A0EE0010A05E0030A39
:1018D00003E0010A01E008D0080E005CE66EFCECB3
:1018E0001CF041E901D000D0080E005CE66EFCEC73
:1018F0001CF041E99FD100010C51030A0EE0010ADE
:1019000009E0030A06E0010A01E056D028EC1AF0CB
:1019100053D052D028EC1AF04FD00101EB511A0DE0
:10192000F3CFE9FFF4CFEAFF000EE926010EEA2229
:10193000090EE926000EEA22EF50030A1FE0EB51E0
:101940001A0DF3CFE9FFF4CFEAFF000EE926010EEE
:10195000EA22EF50010B18E0EB511A0DF3CFE9FF2B
:10196000F4CFEAFF000EE926010EEA22EF90E66AC4
:10197000E66A030EE66E7CDC43E918D0EBC1E6FFB5
:10198000FCEC1CF041E918D0EB511A0DF3CFE9FF44
:10199000F4CFEAFF000EE926010EEA22EF80E66AA4
:1019A000010EE66E030EE66E63DC43E9EBC1E6FF73
:1019B00099EC04F041E900D03DD100010C51030A3B
:1019C0000EE0010A0BE0030A06E0010A01E058D02C
:1019D000B1EC1CF055D0B1EC1CF052D051D001014B
:1019E000EB511A0DF3CFE9FFF4CFEAFF000EE92621
:1019F000010EEA22090EE926000EEA22EF50020A41
:101A00001FE0EB511A0DF3CFE9FFF4CFEAFF000E10
:101A1000E926010EEA22EF50080B18E0EB511A0DEF
:101A2000F3CFE9FFF4CFEAFF000EE926010EEA2228
:101A3000EF96E66AE66A020EE66E1ADC43E919D012
:101A4000EBC1E6FFFCEC1CF041E919D0EB511A0D9B
:101A5000F3CFE9FFF4CFEAFF000EE926010EEA22F8
:101A6000EF86E66A010EE66E020EE66E38EC09F0CD
:101A700043E9EBC1E6FF99EC04F041E900D000D066
:101A8000D9D000010C51030A21E0020A06E0030A42
:101A900004E0020A01E06BD06AD00C6BE66A010E2A
:101AA000E66EE66E38EC09F043E9010EE66EE66E8E
:101AB000020EE66E38EC09F043E9010EE66EE66EC2
:101AC000030EE66E38EC09F043E951D00101EB5109
:101AD0001A0DF3CFE9FFF4CFEAFF000EE926010E5D
:101AE000EA22090EE926000EEA22EF50010A20E060
:101AF000EB511A0DF3CFE9FFF4CFEAFF000EE92610
:101B0000010EEA22EF50100B19E0EB511A0DF3CF42
:101B1000E9FFF4CFEAFF000EE926010EEA22EF9872
:101B2000E66AE66A010EE66E38EC09F043E918D081
:101B3000EBC1E6FFFCEC1CF041E918D0EB511A0DAB
:101B4000F3CFE9FFF4CFEAFF000EE926010EEA2207
:101B5000EF88E66A010EE66EE66E38EC09F043E9BE
:101B6000EBC1E6FF99EC04F041E900D000D062D06F
:101B70000101E65103E018EC16F002D00DEC16F06E
:101B800059D000010C51030A0AE0010A07E0030AD8
:101B900004E0010A01E009D008D007D006D0030E06
:101BA000E66E8DEC18F041E900D044D000010C51F4
:101BB000030A0AE0010A07E0030A04E0010A01E05F
:101BC00009D008D007D006D0020EE66E8DEC18F0D2
:101BD00041E900D02FD000010C51030A0AE0010AAC
:101BE00007E0030A04E0010A01E009D008D007D0A9
:101BF00006D0010EE66E8DEC18F041E900D01AD047
:101C000000010C6BE66A010EE66EE66E38EC09F038
:101C100043E9010EE66EE66E020EE66E38EC09F060
:101C200043E9010EE66EE66E030EE66E38EC09F04F
:101C300043E900D041E9E7CFD9FF1200D9CFE6FF51
:101C4000E1CFD9FF82E942E80101EB511A0DF3CF50
:101C5000E9FFF4CFEAFF000EE926010EEA22030EA7
:101C6000E926000EEA220050EF5C01E2B2D000EB60
:101C7000E6FFEB511A0DF3CFE9FFF4CFEAFF000EB8
:101C8000E926010EEA22EE52EFCFE6FF0AEC1EF043
:101C900042E900093CE1010EE66EE66E00EBE6FF6C
:101CA000E66AEBC1E6FF62EC09F045E90101EB51A0
:101CB0001A0DF3CFE9FFF4CFEAFF000EE926010E7B
:101CC000EA22EE52E9CF00FFEACF01FF0F010051F7
:101CD000026E0151036E010EE66E00EBE6FF01019C
:101CE000EB511A0DF3CFE9FFF4CFEAFF000EE9261E
:101CF000010EEA22EE52E9CF00FFEACF01FF00CF4A
:101D0000E6FF01CFE6FF28EC1EF044E94DD0E66A7D
:101D1000E66A00EBE6FFE66AEBC1E6FF62EC09F07B
:101D200045E9E66A00EBE6FF0101EB511A0DF3CF3E
:101D3000E9FFF4CFEAFF000EE926010EEA22EE5297
:101D4000E9CF00FFEACF01FF00CFE6FF01CFE6FFBA
:101D500028EC1EF044E90101EB511A0DF3CFE9FF25
:101D6000F4CFEAFF000EE926010EEA22060EE9266C
:101D7000000EEA22EF50005C17E1E75115E0EB514D
:101D80001A0DF3CFE9FFF4CFEAFF000EE926010EAA
:101D9000EA22EF50040B08E0E66AEBC1E6FF56ECDE
:101DA00018F042E903EC18F00101EB511A0DF3CFE2
:101DB000E9FFF4CFEAFF000EE926010EEA22EE5217
:101DC000EFCFE6FF010EE66EEBC1E6FF7CEC04F020
:101DD00043E943E9E7CFD9FF1200D9CFE6FFE1CFCE
:101DE000D9FF82E90101EB511A0DF3CFE9FFF4CFDE
:101DF000EAFF000EE926010EEA22040EE926000E93
:101E0000EA2200EBEFFFEBC1E6FF7AEC19F041E9C3
:101E10000101EB511A0DF3CFE9FFF4CFEAFF000EF9
:101E2000E926010EEA22040EE926000EEA22EFCF8F
:101E3000E6FF040EE66EEBC1E6FF7CEC04F043E93E
:101E400041E9E7CFD9FF1200D9CFE6FFE1CFD9FFB3
:101E500082E90101EB511A0DF3CFE9FFF4CFEAFF5C
:101E6000000EE926010EEA22030EE926000EEA2200
:101E700000EBEFFFF29EEBC1E6FFB6EC19F041E993
:101E8000EBC1E6FF31EC19F041E9F28E0101EB51B3
:101E90001A0DF3CFE9FFF4CFEAFF000EE926010E99
:101EA000EA22030EE926000EEA22EFCFE6FF030E38
:101EB000E66EEBC1E6FF7CEC04F043E941E9E7CFD5
:101EC000D9FF1200D9CFE6FFE1CFD9FF82E900EBBD
:101ED000E6FF0101EB511A0DF3CFE9FFF4CFEAFF62
:101EE000000EE926010EEA22020EE926000EEA2281
:101EF000EFCFE6FF0AEC1EF042E900092BE1010EEC
:101F0000E66EE66E00EBE6FF030EE66EEBC1E6FF63
:101F100062EC09F045E9010EE66E00EBE6FF010117
:101F2000EB511A0DF3CFE9FFF4CFEAFF000EE926DB
:101F3000010EEA22020EE926000EEA22E9CF00FF96
:101F4000EACF01FF00CFE6FF01CFE6FF28EC1EF04D
:101F500044E953D0E66AE66A00EBE6FF030EE66E5C
:101F6000EBC1E6FF62EC09F045E9E66A00EBE6FF4B
:101F70000101EB511A0DF3CFE9FFF4CFEAFF000E98
:101F8000E926010EEA22020EE926000EEA22E9CF36
:101F900000FFEACF01FF00CFE6FF01CFE6FF28EC0C
:101FA0001EF044E90101EB511A0DF3CFE9FFF4CF24
:101FB000EAFF000EE926010EEA22060EE926000ECF
:101FC000EA22EF50005C19E1E75117E0EB511A0DDE
:101FD000F3CFE9FFF4CFEAFF000EE926010EEA2273
:101FE000EF50040B0AE0D35108E1E66AEBC1E6FFCB
:101FF00056EC18F042E903EC18F00101EB511A0D10
:10200000F3CFE9FFF4CFEAFF000EE926010EEA2242
:10201000020EE926000EEA22EFCFE6FF020EE66E80
:10202000EBC1E6FF7CEC04F043E941E9E7CFD9FFDF
:102030001200D9CFE6FFE1CFD9FF82E900501A0D97
:10204000F3CFE9FFF4CFEAFF000EE926010EEA2202
:10205000EF50020B0CE000501A0DF3CFE9FFF4CF64
:10206000EAFF000EE926010EEA22EF920BD00050A3
:102070001A0DF3CFE9FFF4CFEAFF000EE926010EB7
:10208000EA22EF824CEC1CF000EBE6FF99EC04F046
:1020900041E941E9E7CFD9FF1200D9CFE6FFE1CF0F
:1020A000D9FF82E900501A0DF3CFE9FFF4CFEAFF20
:1020B000000EE926010EEA22EF50200B0CE0005042
:1020C0001A0DF3CFE9FFF4CFEAFF000EE926010E67
:1020D000EA22EF9A0BD000501A0DF3CFE9FFF4CFAC
:1020E000EAFF000EE926010EEA22EF8AB1EC1CF0AD
:1020F00000EBE6FF99EC04F041E941E9E7CFD9FFB5
:102100001200D9CFE6FFE1CFD9FF82E90050070ADC
:1021100043E0050A2DE0040A2BE0020A16E0040A57
:1021200001E04ED00001196B0101010E056F020E96
:102130001F6F030E396F040E536F050E6D6F060E81
:10214000876F070EA16FBB6B3BD00001010E196FAB
:102150000101056F020E1F6F030E396F536B050EE1
:102160006D6F060E876F070EA16F040EBB6F28D030
:102170000001020E196F0101010E056F1F6B030EA6
:10218000396F020E536F050E6D6F040E876F070EC9
:10219000A16F060EBB6F14D00001030E196F010171
:1021A000056B010E1F6F020E396F030E536F040E85
:1021B0006D6F050E876F060EA16F070EBB6F00D007
:1021C0000101E70503E1010EE86F02D0A1EC17F071
:1021D00028EC1AF019C0E6FF020EE66EE66AA1ECE2
:1021E0001DF043E941E9E7CFD9FF1200D9CFE6FF5F
:1021F000E1CFD9FF82E900011951020A31E0030A57
:1022000015E0010A01E058D0005007E10101EC514E
:1022100002E0EC6B02D0010EEC6FECC1E6FF030EA6
:10222000E66EE66AA1EC1DF043E946D0005006E1F7
:102230000101EDA102D0ED9101D0ED81040E005C11
:1022400006E10101EDA902D0ED9901D0ED89EDC1C2
:10225000E6FF040EE66EE66AA1EC1DF043E92CD021
:10226000005006E10101EEA102D0EE9101D0EE8115
:10227000020E005C06E10101EEA502D0EE9501D050
:10228000EE85040E005C06E10101EEA902D0EE9994
:1022900001D0EE89060E005C06E10101EEAD02D030
:1022A000EE9D01D0EE8DEEC1E6FF050EE66EE66A0C
:1022B000A1EC1DF043E900D028EC1AF041E9E7CF8A
:1022C000D9FF1200D9CFE6FFE1CFD9FF81E944E879
:1022D0000101E75104E1010EE76F7AEC18F001010A
:1022E000E85137E0046A080E045C2FE204501A0D2E
:1022F000F3CFE9FFF4CFEAFF000EE926010EEA2250
:10230000060EE926000EEA22EF6A04501A0DF3CFFA
:10231000E9FFF4CFEAFF000EE926010EEA22070EDC
:10232000E926000EEA22EF6A04501A0DF3CFE9FF06
:10233000F4CFEAFF000EE926010EEA22080EE92694
:10234000000EEA22EF6A042ACED7A1EC17F00101B1
:10235000E86B046A080E045C01E333D104501A0DE3
:10236000F3CFE9FFF4CFEAFF000EE926010EEA22DF
:10237000EF50040B01E123D104501A0DF3CFE9FF14
:10238000F4CFEAFF000EE926010EEA22EF50080B17
:1023900022E004501A0DF3CFE9FFF4CFEAFF000E5C
:1023A000E926010EEA22070EE926000EEA22EF5086
:1023B000E66E04501A0DF3CFE9FFF4CFEAFF000EEA
:1023C000E926010EEA22060EE926000EEA22E5526F
:1023D000E750EF6E3DD008EC1FF0F350016EF45063
:1023E000026E81EB01F082EB02F0030ED890023214
:1023F0000132E804FBE181EB03F0D650031A070E2B
:10240000031604501A0DF3CFE9FFF4CFEAFF000ED4
:10241000E926010EEA22030EE926000EEA22EF2841
:10242000E66E03EBE6FF5FEC1EF041E9E750036E5A
:1024300004501A0DF3CFE9FFF4CFEAFF000EE926AE
:10244000010EEA22060EE926000EEA2203EBEFFF58
:1024500004501A0DF3CFE9FFF4CFEAFF000EE9268E
:10246000010EEA22060EE926000EEA22EFCFE6FF71
:1024700004501A0DF3CFE9FFF4CFEAFF000EE9266E
:10248000010EEA22EE52EFCFE6FF0AEC1EF042E91F
:1024900000092EE004501A0DF3CFE9FFF4CFEAFF54
:1024A000000EE926010EEA22EF50020B07E1010EB1
:1024B000E66E04EBE6FF56EC18F042E9E66A010E20
:1024C000E66E04501A0DF3CFE9FFF4CFEAFF000ED9
:1024D000E926010EEA22060EE926000EEA22EFCFD7
:1024E000E6FFE66A04EBE6FF62EC09F045E919D085
:1024F000010EE66EE66E04501A0DF3CFE9FFF4CF3D
:10250000EAFF000EE926010EEA22060EE926000E79
:10251000EA22EFCFE6FFE66A04EBE6FF62EC09F0A1
:1025200045E9E66A010EE66E04501A0DF3CFE9FFA5
:10253000F4CFEAFF000EE926010EEA22060EE92694
:10254000000EEA22EFCFE6FF020EE66E04EBE6FF96
:1025500062EC09F045E9E66A010EE66E04501A0DD8
:10256000F3CFE9FFF4CFEAFF000EE926010EEA22DD
:10257000060EE926000EEA22EFCFE6FF030EE66E16
:1025800004EBE6FF62EC09F045E9E66A010EE66E4F
:1025900004501A0DF3CFE9FFF4CFEAFF000EE9264D
:1025A000010EEA22080EE926000EEA22EFCFE6FF2E
:1025B000010EE66E04EBE6FF62EC09F045E9042A41
:1025C000C9D603EC18F070EC1CF00101190ED26FA3
:1025D0000A0ED36F45E9E7CFD9FF1200D9CFE6FF46
:1025E000E1CFD9FF81E941E875EC18F0016A080EE6
:1025F000015C01E3D5D201501A0DF3CFE9FFF4CF0E
:10260000EAFF000EE926010EEA22060EE926000E78
:10261000EA22EFCF00FF01501A0DF3CFE9FFF4CF0C
:10262000EAFF000EE926010EEA22030EE926000E5B
:10263000EA22EF500F01D880005573E3010EE66ED9
:10264000E66E01501A0DF3CFE9FFF4CFEAFF000E5A
:10265000E926010EEA22060EE926000EEA22EFCF55
:10266000E6FF020EE66E01EBE6FF62EC09F045E9DB
:1026700001501A0DF3CFE9FFF4CFEAFF000EE9266F
:10268000010EEA22060EE926000EEA22EFCFE6FF4F
:1026900001501A0DF3CFE9FFF4CFEAFF000EE9264F
:1026A000010EEA22EE52EFCFE6FF0AEC1EF042E9FD
:1026B000E66E01501A0DF3CFE9FFF4CFEAFF000EEA
:1026C000E926010EEA22060EE926000EEA22EFCFE5
:1026D000E6FF01501A0DF3CFE9FFF4CFEAFF000E39
:1026E000E926010EEA22EE52EFCFE6FF0AEC1EF0D9
:1026F00042E9E66E01501A0DF3CFE9FFF4CFEAFF8D
:10270000000EE926010EEA22060EE926000EEA2254
:10271000EFCFE6FFE66A01EBE6FF62EC09F045E980
:1027200031D0E66AE66A01501A0DF3CFE9FFF4CF23
:10273000EAFF000EE926010EEA22060EE926000E47
:10274000EA22EFCFE6FF020EE66E01EBE6FF62EC57
:1027500009F045E9E66AE66A01501A0DF3CFE9FF90
:10276000F4CFEAFF000EE926010EEA22060EE92662
:10277000000EEA22EFCFE6FFE66A01EBE6FF62EC2D
:1027800009F045E901501A0DF3CFE9FFF4CFEAFF54
:10279000000EE926010EEA22080EE926000EEA22C2
:1027A000EFCF00FF01501A0DF3CFE9FFF4CFEAFF9E
:1027B000000EE926010EEA22040EE926000EEA22A6
:1027C000EF500F01D88000551BE3010EE66EE66E58
:1027D00001501A0DF3CFE9FFF4CFEAFF000EE9260E
:1027E000010EEA22080EE926000EEA22EFCFE6FFEC
:1027F000010EE66E01EBE6FF62EC09F045E919D047
:10280000E66AE66A01501A0DF3CFE9FFF4CFEAFF5A
:10281000000EE926010EEA22080EE926000EEA2241
:10282000EFCFE6FF010EE66E01EBE6FF62EC09F08A
:1028300045E901501A0DF3CFE9FFF4CFEAFF000E8E
:10284000E926010EEA22060EE926000EEA22EFCF63
:10285000E6FF01501A0DF3CFE9FFF4CFEAFF000EB7
:10286000E926010EEA22020EE926000EEA22EFCF47
:10287000E6FF0AEC1EF042E900091BE0010EE66EDD
:10288000E66E01501A0DF3CFE9FFF4CFEAFF000E18
:10289000E926010EEA22060EE926000EEA22EFCF13
:1028A000E6FF030EE66E01EBE6FF62EC09F045E998
:1028B00019D0E66AE66A01501A0DF3CFE9FFF4CFAA
:1028C000EAFF000EE926010EEA22060EE926000EB6
:1028D000EA22EFCFE6FF030EE66E01EBE6FF62ECC5
:1028E00009F045E901501A0DF3CFE9FFF4CFEAFFF3
:1028F000000EE926010EEA22EF50020B09E0E66A1B
:10290000E66A01EBE6FFE66AADEC0AF044E909D0BD
:10291000010EE66EE66E01EBE6FFE66AADEC0AF04C
:1029200044E901501A0DF3CFE9FFF4CFEAFF000E9E
:10293000E926010EEA22EF50040B01E12FD10150EC
:102940001A0DF3CFE9FFF4CFEAFF000EE926010EDE
:10295000EA22070EE926000EEA22EF2A01501A0D9C
:10296000F3CFE9FFF4CFEAFF000EE926010EEA22D9
:10297000070EE926000EEA22EFCF00FF01501A0DE4
:10298000F3CFE9FFF4CFEAFF000EE926010EEA22B9
:10299000030EE926000EEA22EF500F01D880005501
:1029A00001E3FCD001501A0DF3CFE9FFF4CFEAFFA9
:1029B000000EE926010EEA22080EE926000EEA22A0
:1029C000EF2A01501A0DF3CFE9FFF4CFEAFF000E12
:1029D000E926010EEA22080EE926000EEA22EFCFD0
:1029E00000FF01501A0DF3CFE9FFF4CFEAFF000E0C
:1029F000E926010EEA22040EE926000EEA22EF5033
:102A0000D880005501E3BBD001501A0DF3CFE9FF88
:102A1000F4CFEAFF000EE926010EEA22080EE926AD
:102A2000000EEA22EF6A01501A0DF3CFE9FFF4CF4E
:102A3000EAFF000EE926010EEA22EF50100B01E139
:102A400092D001501A0DF3CFE9FFF4CFEAFF000E48
:102A5000E926010EEA22050EE926000EEA22EF50D1
:102A6000015C71E001501A0DF3CFE9FFF4CFEAFFEA
:102A7000000EE926010EEA22EF9401501A0DF3CF61
:102A8000E9FFF4CFEAFF000EE926010EEA22050E67
:102A9000E926000EEA22EF501A0DF3CFE9FFF4CF3A
:102AA000EAFF000EE926010EEA22EF8401501A0D1A
:102AB000F3CFE9FFF4CFEAFF000EE926010EEA2288
:102AC000050EE926000EEA220150EF5C1EE20150DD
:102AD0001A0DF3CFE9FFF4CFEAFF000EE926010E4D
:102AE000EA22050EE926000EEA22EF501A0DF3CF76
:102AF000E9FFF4CFEAFF000EE926010EEA22070EF5
:102B0000E926000EEA22EF6A1DD001501A0DF3CF1C
:102B1000E9FFF4CFEAFF000EE926010EEA22050ED6
:102B2000E926000EEA22EF501A0DF3CFE9FFF4CFA9
:102B3000EAFF000EE926010EEA22070EE926000E42
:102B4000EA22EF680FD001501A0DF3CFE9FFF4CF5E
:102B5000EAFF000EE926010EEA22070EE926000E22
:102B6000EA22EF6A0BD001501A0DF3CFE9FFF4CF40
:102B7000EAFF000EE926010EEA22EF940FD0015081
:102B80001A0DF3CFE9FFF4CFEAFF000EE926010E9C
:102B9000EA22070EE926000EEA22EF6A012A27D56B
:102BA0000101E85136E0016A080E015C2FE2015094
:102BB0001A0DF3CFE9FFF4CFEAFF000EE926010E6C
:102BC000EA22060EE926000EEA22EF6A01501A0DEB
:102BD000F3CFE9FFF4CFEAFF000EE926010EEA2267
:102BE000070EE926000EEA22EF6A01501A0DF3CF14
:102BF000E9FFF4CFEAFF000EE926010EEA22080EF3
:102C0000E926000EEA22EF6A012ACED70101E86B1D
:102C100098D942E9E7CFD9FF12000101010EE66F12
:102C2000E66AE66EE66A38EC09F043E938EF01F04F
:102C3000D9CFE6FFE1CFD9FF81E941E80101E66B99
:102C4000E76BE66AE66AE66A38EC09F043E94DDAD2
:102C5000016A080E015C01E36CD101501A0DF3CF3B
:102C6000E9FFF4CFEAFF000EE926010EEA22060E84
:102C7000E926000EEA22EFCF00FF01501A0DF3CF34
:102C8000E9FFF4CFEAFF000EE926010EEA22030E67
:102C9000E926000EEA22EF500F01D880005573E3B9
:102CA000010EE66EE66E01501A0DF3CFE9FFF4CF88
:102CB000EAFF000EE926010EEA22060EE926000EC2
:102CC000EA22EFCFE6FF020EE66E01EBE6FF62ECD2
:102CD00009F045E901501A0DF3CFE9FFF4CFEAFFFF
:102CE000000EE926010EEA22060EE926000EEA226F
:102CF000EFCFE6FF01501A0DF3CFE9FFF4CFEAFF63
:102D0000000EE926010EEA22EE52EFCFE6FF0AECB2
:102D10001EF042E9E66E01501A0DF3CFE9FFF4CF41
:102D2000EAFF000EE926010EEA22060EE926000E51
:102D3000EA22EFCFE6FF01501A0DF3CFE9FFF4CFFF
:102D4000EAFF000EE926010EEA22EE52EFCFE6FF7F
:102D50000AEC1EF042E9E66E01501A0DF3CFE9FFCE
:102D6000F4CFEAFF000EE926010EEA22060EE9265C
:102D7000000EEA22EFCFE6FFE66A01EBE6FF62EC27
:102D800009F045E931D0E66AE66A01501A0DF3CF41
:102D9000E9FFF4CFEAFF000EE926010EEA22060E53
:102DA000E926000EEA22EFCFE6FF020EE66E01EB07
:102DB000E6FF62EC09F045E9E66AE66A01501A0DA1
:102DC000F3CFE9FFF4CFEAFF000EE926010EEA2275
:102DD000060EE926000EEA22EFCFE6FFE66A01EBD7
:102DE000E6FF62EC09F045E901501A0DF3CFE9FF67
:102DF000F4CFEAFF000EE926010EEA22080EE926CA
:102E0000000EEA22EFCF00FF01501A0DF3CFE9FFC9
:102E1000F4CFEAFF000EE926010EEA22040EE926AD
:102E2000000EEA22EF500F01D88000551BE3010E7F
:102E3000E66EE66E01501A0DF3CFE9FFF4CFEAFF1C
:102E4000000EE926010EEA22080EE926000EEA220B
:102E5000EFCFE6FF010EE66E01EBE6FF62EC09F054
:102E600045E919D0E66AE66A01501A0DF3CFE9FF89
:102E7000F4CFEAFF000EE926010EEA22080EE92649
:102E8000000EEA22EFCFE6FF010EE66E01EBE6FF51
:102E900062EC09F045E901501A0DF3CFE9FFF4CFD8
:102EA000EAFF000EE926010EEA22EF50020B09E0CC
:102EB000E66AE66A01EBE6FFE66AADEC0AF044E991
:102EC00009D0010EE66EE66E01EBE6FFE66AADECB8
:102ED0000AF044E901501A0DF3CFE9FFF4CFEAFFFD
:102EE000000EE926010EEA22060EE926000EEA226D
:102EF000EF6A01501A0DF3CFE9FFF4CFEAFF000E9D
:102F0000E926010EEA22070EE926000EEA22EF6A00
:102F100001501A0DF3CFE9FFF4CFEAFF000EE926C6
:102F2000010EEA22080EE926000EEA22EF6A012AC3
:102F300090D607D80101E86BE2D842E9E7CFD9FF84
:102F40001200D9CFE6FFE1CFD9FF81E941E80001C6
:102F50001951030A25E0010A19E0030A0DE0010AEC
:102F600001E028D0010100851A9534954E956895A9
:102F700082959C95B6951ED0010100851A953495D1
:102F80004E95688582959C95B69514D00101008573
:102F90001A9534854E95688582959C85B6950AD09C
:102FA000010100851A8534854E85688582859C855A
:102FB000B68500D0016A080E015C21E201501A0DAD
:102FC000F3CFE9FFF4CFEAFF000EE926010EEA2273
:102FD000EF50020B09E0E66AE66A01EBE6FFE66AFB
:102FE000ADEC0AF044E909D0010EE66EE66E01EBA5
:102FF000E6FFE66AADEC0AF044E9012ADCD742E9D3
:10300000E7CFD9FF1200D9CFE6FFE1CFD9FF81E9A1
:1030100041E80101E951016E00011951020A1CE069
:10302000030A0AE0010A01E035D00101EC5103E096
:10303000E95101E001682ED00101EDA105D00F0E8C
:10304000E91502E00F0E0112EDA905D0F00EE91509
:1030500002E0F00E01121ED00101EEA105D0030E18
:10306000E91502E001800182EEA505D00C0EE915FC
:1030700002E001840186EEA905D0300EE91502E0D8
:103080000188018AEEAD05D0C00EE91502E0018C81
:10309000018E00D00101E95102E18E9201D08E82B1
:1030A00001EB8BFF42E9E7CFD9FF1200D9CFE6FF52
:1030B000E1CFD9FF83E942E8010E036E035001EB33
:1030C000F3FF015204E0D890E836F306FCE1036E0A
:1030D000005004E003500101E91303D0031C010177
:1030E000E91743E9E7CFD9FF12000101E96B8B6AC9
:1030F0008E9212008E8401010A0ED46F12008E8609
:1031000001010A0ED56F12009A0EB56E0F018C0EDA
:103110002E6FA984A69460841200D9CFE6FFE1CF78
:10312000D9FF82E90101EB511A0DF3CFE9FFF4CF8A
:10313000EAFF000EE926010EEA22090EE926000E3A
:10314000EA22EF50005C01E188D0EB511A0DF3CF79
:10315000E9FFF4CFEAFF000EE926010EEA22090E8C
:10316000E926000EEA22EF50030A31E0010A19E0D5
:10317000030A01E03FD0E66AEB511A0DF3CFE9FFF5
:10318000F4CFEAFF000EE926010EEA22EF50100B01
:1031900001E0010EE66E010EE66E38EC09F043E93F
:1031A00029D0E66AEB511A0DF3CFE9FFF4CFEAFF1D
:1031B000000EE926010EEA22EF50080B01E0010E95
:1031C000E66E020EE66E38EC09F043E913D0E66ACB
:1031D000EB511A0DF3CFE9FFF4CFEAFF000EE92619
:1031E000010EEA22EF50010BE66E030EE66E38EC9C
:1031F00009F043E90050030A16E0010A0BE0030A54
:1032000001E01AD0010EE66EE66EE66E38EC09F0CB
:1032100043E912D0010EE66EE66E020EE66E38EC61
:1032200009F043E909D0010EE66EE66E030EE66E84
:1032300038EC09F043E900D00101EB511A0DF3CF4E
:10324000E9FFF4CFEAFF000EE926010EEA22090E9B
:10325000E926000EEA2200EBEFFF41E9E7CFD9FFB4
:103260001200D9CFE6FFE1CFD9FF82E941E8026A37
:10327000080E025C3BE200501A0DF3CFE9FFF4CFD9
:10328000EAFF000EE926010EEA22030EE926000EEF
:10329000EA220250EF5C1EE3010EE66E02EBE6FF4F
:1032A00000501A0DF3CFE9FFF4CFEAFF000EE92634
:1032B000010EEA22EE52EFCFE6FF0AEC1EF042E9E1
:1032C000E66E02EBE6FFE66A00EBE6FF62EC09F071
:1032D00045E90AD0E66AE66A02EBE6FFE66A00EB39
:1032E000E6FF62EC09F045E9022AC2D742E9E7CFDE
:1032F000D9FF1200D9CFE6FFE1CFD9FF82E941E83B
:10330000026A080E025C2AE200501A0DF3CFE9FFB0
:10331000F4CFEAFF000EE926010EEA22040EE926A8
:10332000000EEA220250EF5C0CE3010EE66EE66E40
:1033300002EBE6FFE66E00EBE6FF62EC09F045E922
:103340000BD0E66AE66A02EBE6FF010EE66E00EBE2
:10335000E6FF62EC09F045E9022AD3D7010EE66EDA
:10336000DCDE41E942E9E7CFD9FF1200D9CFE6FF21
:10337000E1CFD9FF82E941E8026A080E025C2BE244
:1033800000501A0DF3CFE9FFF4CFEAFF000EE92653
:10339000010EEA22030EE926000EEA220250EF5C3B
:1033A0000DE3010EE66EE66E02EBE6FF020EE66E40
:1033B00000EBE6FF62EC09F045E90BD0E66AE66A4D
:1033C00002EBE6FF020EE66E00EBE6FF62EC09F0B0
:1033D00045E9022AD2D7020EE66E9FDE41E942E9B4
:1033E000E7CFD9FF1200D9CFE6FFE1CFD9FF82E9BD
:1033F00041E8026A080E025C23E2010EE66E02EB6F
:10340000E6FF00501A0DF3CFE9FFF4CFEAFF000EFC
:10341000E926010EEA22020EE926000EEA22EFCF8B
:10342000E6FF0AEC1EF042E9E66E02EBE6FF030E51
:10343000E66E00EBE6FF62EC09F045E9022ADAD716
:10344000030EE66E6ADE41E942E9E7CFD9FF1200DA
:103450000001010E0C6F1951030A01E1B8D1010AF4
:1034600001E132D1030A01E1A0D0010A01E0FCD15F
:103470000101EC514DE0E66A010EE66EE66AE66E89
:10348000ADEC0AF044E9010EE66EE66EE66EE66E1D
:10349000ADEC0AF044E9010EE66EE66E020EE66E51
:1034A000010EE66EADEC0AF044E9010EE66EE66E42
:1034B000030EE66E010EE66EADEC0AF044E9010E75
:1034C000E66EE66E040EE66E010EE66EADEC0AF0F8
:1034D00044E9010EE66EE66E050EE66E010EE66E3E
:1034E000ADEC0AF044E9010EE66EE66E060EE66EFD
:1034F000010EE66EADEC0AF044E9010EE66EE66EF2
:10350000070EE66E010EE66EADEC0AF044E94CD013
:10351000E66A010EE66EE66AE66EADEC0AF044E994
:10352000010EE66EE66AE66EE66EADEC0AF044E980
:10353000010EE66EE66A020EE66E010EE66EADEC78
:103540000AF044E9010EE66EE66A030EE66E010E2D
:10355000E66EADEC0AF044E9010EE66EE66A040E92
:10356000E66E010EE66EADEC0AF044E9010EE66E81
:10357000E66A050EE66E010EE66EADEC0AF044E971
:10358000010EE66EE66A060EE66E010EE66EADEC24
:103590000AF044E9010EE66EE66A070EE66E010ED9
:1035A000E66EADEC0AF044E95FD1E66A010EE66E24
:1035B000E66AE66EADEC0AF044E9E66A010EE66EF4
:1035C000040EE66E010EE66EADEC0AF044E9010170
:1035D000EDA11DD0010EE66EE66EE66EE66EADEC78
:1035E0000AF044E9010EE66EE66E020EE66E010E8A
:1035F000E66EADEC0AF044E9010EE66EE66E030EEF
:10360000E66E010EE66EADEC0AF044E91CD0010E48
:10361000E66EE66AE66EE66EADEC0AF044E9010E8F
:10362000E66EE66A020EE66E010EE66EADEC0AF09C
:1036300044E9010EE66EE66A030EE66E010EE66EE2
:10364000ADEC0AF044E90101EDA91FD0010EE66ED0
:10365000E66E050EE66E010EE66EADEC0AF044E98C
:10366000010EE66EE66E060EE66E010EE66EADEC3F
:103670000AF044E9010EE66EE66E070EE66E010EF4
:10368000E66EADEC0AF044E91ED0010EE66EE66A85
:10369000050EE66E010EE66EADEC0AF044E9010E91
:1036A000E66EE66A060EE66E010EE66EADEC0AF018
:1036B00044E9010EE66EE66A070EE66E010EE66E5E
:1036C000ADEC0AF044E9D0D0E66A010EE66EE66A97
:1036D000E66EADEC0AF044E9E66A010EE66E020E13
:1036E000E66E010EE66EADEC0AF044E9E66A010E04
:1036F000E66E040EE66E010EE66EADEC0AF044E9ED
:10370000E66A010EE66E060EE66E010EE66EADECA2
:103710000AF044E90101EEA109D0010EE66EE66E61
:10372000E66EE66EADEC0AF044E908D0010EE66EF6
:10373000E66AE66EE66EADEC0AF044E90101EEA53C
:103740000BD0010EE66EE66E030EE66E010EE66E1F
:10375000ADEC0AF044E90AD0010EE66EE66A030E0B
:10376000E66E010EE66EADEC0AF044E90101EEA949
:103770000BD0010EE66EE66E050EE66E010EE66EED
:10378000ADEC0AF044E90AD0010EE66EE66A050ED9
:10379000E66E010EE66EADEC0AF044E90101EEAD15
:1037A0000BD0010EE66EE66E070EE66E010EE66EBB
:1037B000ADEC0AF044E90AD0010EE66EE66A070EA7
:1037C000E66E010EE66EADEC0AF044E94DD0E66A15
:1037D000010EE66EE66AE66EADEC0AF044E9E66AD2
:1037E000010EE66EE66EE66EADEC0AF044E9E66ABE
:1037F000010EE66E020EE66E010EE66EADEC0AF00C
:1038000044E9E66A010EE66E030EE66E010EE66E10
:10381000ADEC0AF044E9E66A010EE66E040EE66ECF
:10382000010EE66EADEC0AF044E9E66A010EE66EC2
:10383000050EE66E010EE66EADEC0AF044E9E66AAE
:10384000010EE66E060EE66E010EE66EADEC0AF0B7
:1038500044E9E66A010EE66E070EE66E010EE66EBC
:10386000ADEC0AF044E900D0010EE66EE66EE66EBD
:1038700038EC09F043E9010EE66EE66E020EE66EE4
:1038800038EC09F043E9E66A010EE66E030EE66ED7
:1038900038EC09F043E91200D9CFE6FFE1CFD9FFB8
:1038A00081E941E800010C6B1BD8E66A010EE66E67
:1038B000E66E38EC09F043E9010EE66EE66E020EA4
:1038C000E66E38EC09F043E9010EE66EE66E030E93
:1038D000E66E38EC09F043E942E9E7CFD9FF120080
:1038E000D9CFE6FFE1CFD9FF81E942E8010E026EB0
:1038F000016A080E015C31E202508B140AE0E66AAC
:10390000010EE66E01EBE6FFE66AADEC0AF044E973
:103910001FD001501A0DF3CFE9FFF4CFEAFF000EDC
:10392000E926010EEA22EF50020B09E0E66AE66A98
:1039300001EBE6FFE66AADEC0AF044E909D0010EBE
:10394000E66EE66E01EBE6FFE66AADEC0AF044E9EE
:103950000250E824026E012ACCD743E9E7CFD9FF11
:103960001200D9CFE6FFE1CFD9FF81E941E800019C
:10397000020E0C6F016A080E015C23E201501A0D61
:10398000F3CFE9FFF4CFEAFF000EE926010EEA22A9
:10399000EF50200B0BE0E66A010EE66E01EBE6FF4E
:1039A000020EE66EADEC0AF044E909D0E66AE66A7A
:1039B00001EBE6FF020EE66EADEC0AF044E9012AE7
:1039C000DAD7010EE66EE66EE66E38EC09F043E9F2
:1039D000E66A010EE66E020EE66E38EC09F043E987
:1039E000010EE66EE66E030EE66E38EC09F043E972
:1039F00042E9E7CFD9FF1200D9CFE6FFE1CFD9FFE7
:103A000082E90001030E0C6F00EBEBF100501A0D80
:103A1000F3CFE9FFF4CFEAFF000EE926010EEA2218
:103A2000090EE926000EEA22EF6AE66A00501A0D36
:103A3000F3CFE9FFF4CFEAFF000EE926010EEA22F8
:103A4000EF50100B01E0010EE66E010EE66E38EC51
:103A500009F043E9E66A00501A0DF3CFE9FFF4CF0D
:103A6000EAFF000EE926010EEA22EF50080B01E002
:103A7000010EE66E020EE66E38EC09F043E9E66AE6
:103A800000501A0DF3CFE9FFF4CFEAFF000EE9264C
:103A9000010EEA22EF50010BE66E030EE66E38ECE3
:103AA00009F043E941E9E7CFD9FF1200D9CFE6FF9A
:103AB000E1CFD9FF83E90F01000E0014006FFF0E64
:103AC0000114016F01CF00FF016B00CF63FFFF0EF8
:103AD0000014626E7F9E7F9C7F80615000D041E920
:103AE000E7CFD9FF1200D9CFE6FFE1CFD9FF83E9B5
:103AF00043E8036A046A00EB00FF01EB01FF002AC0
:103B0000000E012200CFE6FF01CFE6FFCFDF42E942
:103B1000056E0550036E046A00EBE6FF01EBE6FF5D
:103B2000C5DF42E9056E83EB04F0036A055003121A
:103B300003EBF3FF04EBF4FF00D044E9E7CFD9FF38
:103B40001200D9CFE6FFE1CFD9FF84E90F01000EC3
:103B50000114006FFF0E0214016F01CF00FF016B13
:103B600000CF63FFFF0E0114626E00EB61FF7F9ECA
:103B70007F9C7F841CEC00F0A698550E7E6EAA0EEA
:103B80007E6E7F821FEC00F0A6A8FED77F9441E9ED
:103B9000E7CFD9FF1200D9CFE6FFE1CFD9FF85E902
:103BA0000F01000E0014006FFF0E0114016F01CF12
:103BB00000FF016B00CFE6FF02EB02FF03EB03FF08
:103BC000022A000E032202CFE6FF03CFE6FFB9DF91
:103BD00043E9FF0E0014E66E02EBE6FF03EBE6FF9F
:103BE000B0DF43E941E9E7CFD9FF12000101EA6BF9
:103BF00086A007D086A202D0EA6B02D0010EEA6F3F
:103C000008D086A204D0030EEA6F979A02D0020E63
:103C1000EA6F1200D9CFE6FFE1CFD9FF83E941E88F
:103C2000010E036E035000EBF3FF005204E0D89046
:103C3000E836F306FCE1036E0150031403E0010EC5
:103C400003D002D0000E00D042E9E7CFD9FF120026
:103C5000D9CFE6FFE1CFD9FF85E941E8010E056E36
:103C6000055001EBF3FF015204E0D890E836F3066B
:103C7000FCE1056E005007E002EBE9FF03EBEAFF11
:103C80000550EF1209D0051C0F01006F02EBE9FF90
:103C900003EBEAFF0051EF1642E9E7CFD9FF12002C
:103CA00042E8D9CFE6FFDACFE6FFE1CFD9FFE2CF96
:103CB000DAFF86E9036A1200F3DF038003D0F0DF46
:103CC00001D00382026A080EE76ED89001360236F0
:103CD0000050025C02E3026E012AE72EF7D703B21E
:103CE000120003B081EB00F003A082EB00F0E5527C
:103CF000E5CFDAFFE7CFD9FF43E9120044E8D9CF97
:103D0000E6FFDACFE6FFE1CFD9FFE2CFDAFF8AE9BB
:103D100080EB04F081EB05F082EB06F00250040228
:103D2000F450016EF350006E0350076E0502F4501C
:103D3000036EF350026E07500402F3500126F45054
:103D40000222E86A032206500502F3500126F450CD
:103D50000222E86A0322E552E5CFDAFFE7CFD9FF76
:043D600046E9000C24
:0C3D64001E0EF66E000EF76E000EF86EDC
:103D700001010900F550F46F0900F550F56F03E1FA
:103D8000F46701D03DD00900F550EF6F0900F55000
:103D9000F06F0900F550F16F09000900F550E96E68
:103DA0000900F550EA6E090009000900F550F26FAC
:103DB0000900F550F36F09000900F6CFF6F1F7CFCF
:103DC000F7F1F8CFF8F1EFC1F6FFF0C1F7FFF1C15D
:103DD000F8FF0101F25302E1F35307E00900F55047
:103DE000EE6EF207F8E2F307F9D7F6C1F6FFF7C176
:103DF000F7FFF8C1F8FF0101F407000EF55BBFD72C
:023E00001200AE
:0E3E0200FE0EE3CFFDF1FF0EE3CFFEF1120046
:103E1000350EE66E450EE66EFDC1E6FFFEC1E6FF1D
:103E20007EEC1EF0E552E5CFFEF1E7CFFDF101019A
:103E3000FD2BE86AFE23FE9FFDC1F3FFFEC1F4FFE8
:023E400012006E
:0E3E4200160EF36E00EE00F00F0E01D8120007
:103E5000EA6002D0EE6AFCD7F350E9601200EE6A25
:023E6000FCD78D
:0E3E62001EEE00F02EEE00F0F86AB2EC1EF03C
:0C3E700003EC00F0E6EC00F0FBD71200C1
:043E7C000000000042
:103E80000000000000000000000000000000000032
:063E90000000000000002C
:020000040030CA
:0100000054AB
:0100010008F6
:010002007687
:010003007C80
:010005008872
:010006009168
:00000001FF
